{
  "contractName": "Voting",
  "abi": [
    {
      "anonymous": false,
      "inputs": [
        {
          "indexed": true,
          "internalType": "address",
          "name": "previousOwner",
          "type": "address"
        },
        {
          "indexed": true,
          "internalType": "address",
          "name": "newOwner",
          "type": "address"
        }
      ],
      "name": "OwnershipTransferred",
      "type": "event"
    },
    {
      "anonymous": false,
      "inputs": [
        {
          "indexed": false,
          "internalType": "uint256",
          "name": "proposalId",
          "type": "uint256"
        }
      ],
      "name": "ProposalRegistered",
      "type": "event"
    },
    {
      "anonymous": false,
      "inputs": [
        {
          "indexed": false,
          "internalType": "address",
          "name": "voter",
          "type": "address"
        },
        {
          "indexed": false,
          "internalType": "uint256",
          "name": "proposalId",
          "type": "uint256"
        }
      ],
      "name": "Voted",
      "type": "event"
    },
    {
      "anonymous": false,
      "inputs": [
        {
          "indexed": false,
          "internalType": "address",
          "name": "voterAddress",
          "type": "address"
        }
      ],
      "name": "VoterRegistered",
      "type": "event"
    },
    {
      "anonymous": false,
      "inputs": [
        {
          "indexed": false,
          "internalType": "enum Voting.WorkflowStatus",
          "name": "previousStatus",
          "type": "uint8"
        },
        {
          "indexed": false,
          "internalType": "enum Voting.WorkflowStatus",
          "name": "newStatus",
          "type": "uint8"
        }
      ],
      "name": "WorkflowStatusChange",
      "type": "event"
    },
    {
      "inputs": [],
      "name": "owner",
      "outputs": [
        {
          "internalType": "address",
          "name": "",
          "type": "address"
        }
      ],
      "stateMutability": "view",
      "type": "function",
      "constant": true
    },
    {
      "inputs": [],
      "name": "renounceOwnership",
      "outputs": [],
      "stateMutability": "nonpayable",
      "type": "function"
    },
    {
      "inputs": [
        {
          "internalType": "address",
          "name": "newOwner",
          "type": "address"
        }
      ],
      "name": "transferOwnership",
      "outputs": [],
      "stateMutability": "nonpayable",
      "type": "function"
    },
    {
      "inputs": [],
      "name": "winningProposalID",
      "outputs": [
        {
          "internalType": "uint256",
          "name": "",
          "type": "uint256"
        }
      ],
      "stateMutability": "view",
      "type": "function",
      "constant": true
    },
    {
      "inputs": [],
      "name": "workflowStatus",
      "outputs": [
        {
          "internalType": "enum Voting.WorkflowStatus",
          "name": "",
          "type": "uint8"
        }
      ],
      "stateMutability": "view",
      "type": "function",
      "constant": true
    },
    {
      "inputs": [
        {
          "internalType": "address",
          "name": "_addr",
          "type": "address"
        }
      ],
      "name": "getVoter",
      "outputs": [
        {
          "components": [
            {
              "internalType": "bool",
              "name": "isRegistered",
              "type": "bool"
            },
            {
              "internalType": "bool",
              "name": "hasVoted",
              "type": "bool"
            },
            {
              "internalType": "uint256",
              "name": "votedProposalId",
              "type": "uint256"
            }
          ],
          "internalType": "struct Voting.Voter",
          "name": "",
          "type": "tuple"
        }
      ],
      "stateMutability": "view",
      "type": "function",
      "constant": true
    },
    {
      "inputs": [
        {
          "internalType": "uint256",
          "name": "_id",
          "type": "uint256"
        }
      ],
      "name": "getOneProposal",
      "outputs": [
        {
          "components": [
            {
              "internalType": "string",
              "name": "description",
              "type": "string"
            },
            {
              "internalType": "uint256",
              "name": "voteCount",
              "type": "uint256"
            }
          ],
          "internalType": "struct Voting.Proposal",
          "name": "",
          "type": "tuple"
        }
      ],
      "stateMutability": "view",
      "type": "function",
      "constant": true
    },
    {
      "inputs": [
        {
          "internalType": "address",
          "name": "_addr",
          "type": "address"
        }
      ],
      "name": "addVoter",
      "outputs": [],
      "stateMutability": "nonpayable",
      "type": "function"
    },
    {
      "inputs": [
        {
          "internalType": "string",
          "name": "_desc",
          "type": "string"
        }
      ],
      "name": "addProposal",
      "outputs": [],
      "stateMutability": "nonpayable",
      "type": "function"
    },
    {
      "inputs": [
        {
          "internalType": "uint256",
          "name": "_id",
          "type": "uint256"
        }
      ],
      "name": "setVote",
      "outputs": [],
      "stateMutability": "nonpayable",
      "type": "function"
    },
    {
      "inputs": [],
      "name": "startProposalsRegistering",
      "outputs": [],
      "stateMutability": "nonpayable",
      "type": "function"
    },
    {
      "inputs": [],
      "name": "endProposalsRegistering",
      "outputs": [],
      "stateMutability": "nonpayable",
      "type": "function"
    },
    {
      "inputs": [],
      "name": "startVotingSession",
      "outputs": [],
      "stateMutability": "nonpayable",
      "type": "function"
    },
    {
      "inputs": [],
      "name": "endVotingSession",
      "outputs": [],
      "stateMutability": "nonpayable",
      "type": "function"
    },
    {
      "inputs": [],
      "name": "tallyVotes",
      "outputs": [],
      "stateMutability": "nonpayable",
      "type": "function"
    }
  ],
  "bytecode": "0x608060405234801561001057600080fd5b5061003f61002b610044640100000000026401000000009004565b61004c640100000000026401000000009004565b610110565b600033905090565b60008060009054906101000a900473ffffffffffffffffffffffffffffffffffffffff169050816000806101000a81548173ffffffffffffffffffffffffffffffffffffffff021916908373ffffffffffffffffffffffffffffffffffffffff1602179055508173ffffffffffffffffffffffffffffffffffffffff168173ffffffffffffffffffffffffffffffffffffffff167f8be0079c531659141344cd1fd0a4f28419497f9722a3daafe3b4186f6b6457e060405160405180910390a35050565b61247880620001206000396000f3fe608060405234801561001057600080fd5b5060043610610112576000357c010000000000000000000000000000000000000000000000000000000090048063a7bfab16116100b4578063d4f50f9811610083578063d4f50f981461020b578063ee74c6781461023b578063f2fde38b14610245578063f4ab9adf1461026157610112565b8063a7bfab16146101cf578063bdc01431146101d9578063c7038a4e146101f7578063c88af42f1461020157610112565b8063715018a6116100f0578063715018a6146101595780638da5cb5b14610163578063a1edffa214610181578063a2788cce1461019f57610112565b8063230796ae146101175780632fdae3c514610133578063378a21781461014f575b600080fd5b610131600480360381019061012c919061146e565b61027d565b005b61014d60048036038101906101489190611500565b610578565b005b6101576107fb565b005b610161610968565b005b61016b61097c565b604051610178919061158e565b60405180910390f35b6101896109a5565b6040516101969190611620565b60405180910390f35b6101b960048036038101906101b4919061146e565b6109b8565b6040516101c69190611717565b60405180910390f35b6101d7610b1f565b005b6101e1610c05565b6040516101ee9190611748565b60405180910390f35b6101ff610c0b565b005b610209610d86565b005b6102256004803603810190610220919061178f565b610e6b565b6040516102329190611819565b60405180910390f35b610243610f93565b005b61025f600480360381019061025a919061178f565b611079565b005b61027b6004803603810190610276919061178f565b6110fc565b005b600460003373ffffffffffffffffffffffffffffffffffffffff1673ffffffffffffffffffffffffffffffffffffffff16815260200190815260200160002060000160009054906101000a900460ff1661030c576040517f08c379a000000000000000000000000000000000000000000000000000000000815260040161030390611891565b60405180910390fd5b600360058111156103205761031f6115a9565b5b600260009054906101000a900460ff166005811115610342576103416115a9565b5b14610382576040517f08c379a000000000000000000000000000000000000000000000000000000000815260040161037990611923565b60405180910390fd5b60011515600460003373ffffffffffffffffffffffffffffffffffffffff1673ffffffffffffffffffffffffffffffffffffffff16815260200190815260200160002060000160019054906101000a900460ff16151503610418576040517f08c379a000000000000000000000000000000000000000000000000000000000815260040161040f9061198f565b60405180910390fd5b600380549050811061045f576040517f08c379a0000000000000000000000000000000000000000000000000000000008152600401610456906119fb565b60405180910390fd5b80600460003373ffffffffffffffffffffffffffffffffffffffff1673ffffffffffffffffffffffffffffffffffffffff168152602001908152602001600020600101819055506001600460003373ffffffffffffffffffffffffffffffffffffffff1673ffffffffffffffffffffffffffffffffffffffff16815260200190815260200160002060000160016101000a81548160ff0219169083151502179055506003818154811061051557610514611a1b565b5b9060005260206000209060020201600101600081548092919061053790611a79565b91905055507f4d99b957a2bc29a30ebd96a7be8e68fe50a3c701db28a91436490b7d53870ca4338260405161056d929190611ac1565b60405180910390a150565b600460003373ffffffffffffffffffffffffffffffffffffffff1673ffffffffffffffffffffffffffffffffffffffff16815260200190815260200160002060000160009054906101000a900460ff16610607576040517f08c379a00000000000000000000000000000000000000000000000000000000081526004016105fe90611891565b60405180910390fd5b6001600581111561061b5761061a6115a9565b5b600260009054906101000a900460ff16600581111561063d5761063c6115a9565b5b1461067d576040517f08c379a000000000000000000000000000000000000000000000000000000000815260040161067490611b36565b60405180910390fd5b60405160200161068c90611b7c565b6040516020818303038152906040528051906020012082826040516020016106b5929190611bd8565b604051602081830303815290604052805190602001200361070b576040517f08c379a000000000000000000000000000000000000000000000000000000000815260040161070290611c6e565b60405180910390fd5b6107136113ef565b82828080601f016020809104026020016040519081016040528093929190818152602001838380828437600081840152601f19601f820116905080830192505050505050508160000181905250600381908060018154018082558091505060019003906000526020600020906002020160009091909190915060008201518160000190816107a19190611ecf565b506020820151816001015550507f92e393e9b54e2f801d3ea4beb0c5e71a21cc34a5d34b77d0fb8a3aa1650dc18f60016003805490506107e19190611fa1565b6040516107ee9190611748565b60405180910390a1505050565b6108036112a5565b60046005811115610817576108166115a9565b5b600260009054906101000a900460ff166005811115610839576108386115a9565b5b14610879576040517f08c379a000000000000000000000000000000000000000000000000000000000815260040161087090612047565b60405180910390fd5b600080600090505b6003805490508110156108f757600382815481106108a2576108a1611a1b565b5b906000526020600020906002020160010154600382815481106108c8576108c7611a1b565b5b90600052602060002090600202016001015411156108e4578091505b80806108ef90611a79565b915050610881565b50806001819055506005600260006101000a81548160ff02191690836005811115610925576109246115a9565b5b02179055507f0a97a4ee45751e2abf3e4fc8946939630b11b371ea8ae39ccdc3056e98f5cc3f6004600560405161095d929190612067565b60405180910390a150565b6109706112a5565b61097a6000611323565b565b60008060009054906101000a900473ffffffffffffffffffffffffffffffffffffffff16905090565b600260009054906101000a900460ff1681565b6109c06113ef565b600460003373ffffffffffffffffffffffffffffffffffffffff1673ffffffffffffffffffffffffffffffffffffffff16815260200190815260200160002060000160009054906101000a900460ff16610a4f576040517f08c379a0000000000000000000000000000000000000000000000000000000008152600401610a4690611891565b60405180910390fd5b60038281548110610a6357610a62611a1b565b5b9060005260206000209060020201604051806040016040529081600082018054610a8c90611cec565b80601f0160208091040260200160405190810160405280929190818152602001828054610ab890611cec565b8015610b055780601f10610ada57610100808354040283529160200191610b05565b820191906000526020600020905b815481529060010190602001808311610ae857829003601f168201915b505050505081526020016001820154815250509050919050565b610b276112a5565b60036005811115610b3b57610b3a6115a9565b5b600260009054906101000a900460ff166005811115610b5d57610b5c6115a9565b5b14610b9d576040517f08c379a0000000000000000000000000000000000000000000000000000000008152600401610b9490611923565b60405180910390fd5b6004600260006101000a81548160ff02191690836005811115610bc357610bc26115a9565b5b02179055507f0a97a4ee45751e2abf3e4fc8946939630b11b371ea8ae39ccdc3056e98f5cc3f60036004604051610bfb929190612067565b60405180910390a1565b60015481565b610c136112a5565b60006005811115610c2757610c266115a9565b5b600260009054906101000a900460ff166005811115610c4957610c486115a9565b5b14610c89576040517f08c379a0000000000000000000000000000000000000000000000000000000008152600401610c8090612102565b60405180910390fd5b6001600260006101000a81548160ff02191690836005811115610caf57610cae6115a9565b5b0217905550610cbc6113ef565b6040518060400160405280600781526020017f47454e4553495300000000000000000000000000000000000000000000000000815250816000018190525060038190806001815401808255809150506001900390600052602060002090600202016000909190919091506000820151816000019081610d3b9190611ecf565b506020820151816001015550507f0a97a4ee45751e2abf3e4fc8946939630b11b371ea8ae39ccdc3056e98f5cc3f60006001604051610d7b929190612067565b60405180910390a150565b610d8e6112a5565b60016005811115610da257610da16115a9565b5b600260009054906101000a900460ff166005811115610dc457610dc36115a9565b5b14610e04576040517f08c379a0000000000000000000000000000000000000000000000000000000008152600401610dfb90612194565b60405180910390fd5b60028060006101000a81548160ff02191690836005811115610e2957610e286115a9565b5b02179055507f0a97a4ee45751e2abf3e4fc8946939630b11b371ea8ae39ccdc3056e98f5cc3f60016002604051610e61929190612067565b60405180910390a1565b610e73611409565b600460003373ffffffffffffffffffffffffffffffffffffffff1673ffffffffffffffffffffffffffffffffffffffff16815260200190815260200160002060000160009054906101000a900460ff16610f02576040517f08c379a0000000000000000000000000000000000000000000000000000000008152600401610ef990611891565b60405180910390fd5b600460008373ffffffffffffffffffffffffffffffffffffffff1673ffffffffffffffffffffffffffffffffffffffff1681526020019081526020016000206040518060600160405290816000820160009054906101000a900460ff161515151581526020016000820160019054906101000a900460ff161515151581526020016001820154815250509050919050565b610f9b6112a5565b60026005811115610faf57610fae6115a9565b5b600260009054906101000a900460ff166005811115610fd157610fd06115a9565b5b14611011576040517f08c379a000000000000000000000000000000000000000000000000000000000815260040161100890612226565b60405180910390fd5b6003600260006101000a81548160ff02191690836005811115611037576110366115a9565b5b02179055507f0a97a4ee45751e2abf3e4fc8946939630b11b371ea8ae39ccdc3056e98f5cc3f6002600360405161106f929190612067565b60405180910390a1565b6110816112a5565b600073ffffffffffffffffffffffffffffffffffffffff168173ffffffffffffffffffffffffffffffffffffffff16036110f0576040517f08c379a00000000000000000000000000000000000000000000000000000000081526004016110e7906122b8565b60405180910390fd5b6110f981611323565b50565b6111046112a5565b60006005811115611118576111176115a9565b5b600260009054906101000a900460ff16600581111561113a576111396115a9565b5b1461117a576040517f08c379a00000000000000000000000000000000000000000000000000000000081526004016111719061234a565b60405180910390fd5b60011515600460008373ffffffffffffffffffffffffffffffffffffffff1673ffffffffffffffffffffffffffffffffffffffff16815260200190815260200160002060000160009054906101000a900460ff16151503611210576040517f08c379a0000000000000000000000000000000000000000000000000000000008152600401611207906123b6565b60405180910390fd5b6001600460008373ffffffffffffffffffffffffffffffffffffffff1673ffffffffffffffffffffffffffffffffffffffff16815260200190815260200160002060000160006101000a81548160ff0219169083151502179055507fb6be2187d059cc2a55fe29e0e503b566e1e0f8c8780096e185429350acffd3dd8160405161129a919061158e565b60405180910390a150565b6112ad6113e7565b73ffffffffffffffffffffffffffffffffffffffff166112cb61097c565b73ffffffffffffffffffffffffffffffffffffffff1614611321576040517f08c379a000000000000000000000000000000000000000000000000000000000815260040161131890612422565b60405180910390fd5b565b60008060009054906101000a900473ffffffffffffffffffffffffffffffffffffffff169050816000806101000a81548173ffffffffffffffffffffffffffffffffffffffff021916908373ffffffffffffffffffffffffffffffffffffffff1602179055508173ffffffffffffffffffffffffffffffffffffffff168173ffffffffffffffffffffffffffffffffffffffff167f8be0079c531659141344cd1fd0a4f28419497f9722a3daafe3b4186f6b6457e060405160405180910390a35050565b600033905090565b604051806040016040528060608152602001600081525090565b6040518060600160405280600015158152602001600015158152602001600081525090565b600080fd5b600080fd5b6000819050919050565b61144b81611438565b811461145657600080fd5b50565b60008135905061146881611442565b92915050565b6000602082840312156114845761148361142e565b5b600061149284828501611459565b91505092915050565b600080fd5b600080fd5b600080fd5b60008083601f8401126114c0576114bf61149b565b5b8235905067ffffffffffffffff8111156114dd576114dc6114a0565b5b6020830191508360018202830111156114f9576114f86114a5565b5b9250929050565b600080602083850312156115175761151661142e565b5b600083013567ffffffffffffffff81111561153557611534611433565b5b611541858286016114aa565b92509250509250929050565b600073ffffffffffffffffffffffffffffffffffffffff82169050919050565b60006115788261154d565b9050919050565b6115888161156d565b82525050565b60006020820190506115a3600083018461157f565b92915050565b7f4e487b7100000000000000000000000000000000000000000000000000000000600052602160045260246000fd5b600681106115e9576115e86115a9565b5b50565b60008190506115fa826115d8565b919050565b600061160a826115ec565b9050919050565b61161a816115ff565b82525050565b60006020820190506116356000830184611611565b92915050565b600081519050919050565b600082825260208201905092915050565b60005b8381101561167557808201518184015260208101905061165a565b60008484015250505050565b6000601f19601f8301169050919050565b600061169d8261163b565b6116a78185611646565b93506116b7818560208601611657565b6116c081611681565b840191505092915050565b6116d481611438565b82525050565b600060408301600083015184820360008601526116f78282611692565b915050602083015161170c60208601826116cb565b508091505092915050565b6000602082019050818103600083015261173181846116da565b905092915050565b61174281611438565b82525050565b600060208201905061175d6000830184611739565b92915050565b61176c8161156d565b811461177757600080fd5b50565b60008135905061178981611763565b92915050565b6000602082840312156117a5576117a461142e565b5b60006117b38482850161177a565b91505092915050565b60008115159050919050565b6117d1816117bc565b82525050565b6060820160008201516117ed60008501826117c8565b50602082015161180060208501826117c8565b50604082015161181360408501826116cb565b50505050565b600060608201905061182e60008301846117d7565b92915050565b600082825260208201905092915050565b7f596f75277265206e6f74206120766f7465720000000000000000000000000000600082015250565b600061187b601283611834565b915061188682611845565b602082019050919050565b600060208201905081810360008301526118aa8161186e565b9050919050565b7f566f74696e672073657373696f6e20686176656e74207374617274656420796560008201527f7400000000000000000000000000000000000000000000000000000000000000602082015250565b600061190d602183611834565b9150611918826118b1565b604082019050919050565b6000602082019050818103600083015261193c81611900565b9050919050565b7f596f75206861766520616c726561647920766f74656400000000000000000000600082015250565b6000611979601683611834565b915061198482611943565b602082019050919050565b600060208201905081810360008301526119a88161196c565b9050919050565b7f50726f706f73616c206e6f7420666f756e640000000000000000000000000000600082015250565b60006119e5601283611834565b91506119f0826119af565b602082019050919050565b60006020820190508181036000830152611a14816119d8565b9050919050565b7f4e487b7100000000000000000000000000000000000000000000000000000000600052603260045260246000fd5b7f4e487b7100000000000000000000000000000000000000000000000000000000600052601160045260246000fd5b6000611a8482611438565b91507fffffffffffffffffffffffffffffffffffffffffffffffffffffffffffffffff8203611ab657611ab5611a4a565b5b600182019050919050565b6000604082019050611ad6600083018561157f565b611ae36020830184611739565b9392505050565b7f50726f706f73616c7320617265206e6f7420616c6c6f77656420796574000000600082015250565b6000611b20601d83611834565b9150611b2b82611aea565b602082019050919050565b60006020820190508181036000830152611b4f81611b13565b9050919050565b50565b6000611b66600083611834565b9150611b7182611b56565b600082019050919050565b60006020820190508181036000830152611b9581611b59565b9050919050565b82818337600083830152505050565b6000611bb78385611834565b9350611bc4838584611b9c565b611bcd83611681565b840190509392505050565b60006020820190508181036000830152611bf3818486611bab565b90509392505050565b7f566f7573206e6520706f7576657a20706173206e65207269656e2070726f706f60008201527f7365720000000000000000000000000000000000000000000000000000000000602082015250565b6000611c58602383611834565b9150611c6382611bfc565b604082019050919050565b60006020820190508181036000830152611c8781611c4b565b9050919050565b7f4e487b7100000000000000000000000000000000000000000000000000000000600052604160045260246000fd5b7f4e487b7100000000000000000000000000000000000000000000000000000000600052602260045260246000fd5b60006002820490506001821680611d0457607f821691505b602082108103611d1757611d16611cbd565b5b50919050565b60008190508160005260206000209050919050565b60006020601f8301049050919050565b60008160020a8302905092915050565b600060088302611d827fffffffffffffffffffffffffffffffffffffffffffffffffffffffffffffffff82611d42565b611d8c8683611d42565b95508019841693508086168417925050509392505050565b6000819050919050565b6000611dc9611dc4611dbf84611438565b611da4565b611438565b9050919050565b6000819050919050565b611de383611dae565b611df7611def82611dd0565b848454611d52565b825550505050565b600090565b611e0c611dff565b611e17818484611dda565b505050565b5b81811015611e3b57611e30600082611e04565b600181019050611e1d565b5050565b601f821115611e8057611e5181611d1d565b611e5a84611d32565b81016020851015611e69578190505b611e7d611e7585611d32565b830182611e1c565b50505b505050565b60008160020a8304905092915050565b6000611ea660001984600802611e85565b1980831691505092915050565b6000611ebf8383611e95565b9150826002028217905092915050565b611ed88261163b565b67ffffffffffffffff811115611ef157611ef0611c8e565b5b611efb8254611cec565b611f06828285611e3f565b600060209050601f831160018114611f395760008415611f27578287015190505b611f318582611eb3565b865550611f99565b601f198416611f4786611d1d565b60005b82811015611f6f57848901518255600182019150602085019450602081019050611f4a565b86831015611f8c5784890151611f88601f891682611e95565b8355505b6001600288020188555050505b505050505050565b6000611fac82611438565b9150611fb783611438565b9250828203905081811115611fcf57611fce611a4a565b5b92915050565b7f43757272656e7420737461747573206973206e6f7420766f74696e672073657360008201527f73696f6e20656e64656400000000000000000000000000000000000000000000602082015250565b6000612031602a83611834565b915061203c82611fd5565b604082019050919050565b6000602082019050818103600083015261206081612024565b9050919050565b600060408201905061207c6000830185611611565b6120896020830184611611565b9392505050565b7f5265676973746572696e672070726f706f73616c732063616e7420626520737460008201527f6172746564206e6f770000000000000000000000000000000000000000000000602082015250565b60006120ec602983611834565b91506120f782612090565b604082019050919050565b6000602082019050818103600083015261211b816120df565b9050919050565b7f5265676973746572696e672070726f706f73616c7320686176656e742073746160008201527f7274656420796574000000000000000000000000000000000000000000000000602082015250565b600061217e602883611834565b915061218982612122565b604082019050919050565b600060208201905081810360008301526121ad81612171565b9050919050565b7f5265676973746572696e672070726f706f73616c73207068617365206973206e60008201527f6f742066696e6973686564000000000000000000000000000000000000000000602082015250565b6000612210602b83611834565b915061221b826121b4565b604082019050919050565b6000602082019050818103600083015261223f81612203565b9050919050565b7f4f776e61626c653a206e6577206f776e657220697320746865207a65726f206160008201527f6464726573730000000000000000000000000000000000000000000000000000602082015250565b60006122a2602683611834565b91506122ad82612246565b604082019050919050565b600060208201905081810360008301526122d181612295565b9050919050565b7f566f7465727320726567697374726174696f6e206973206e6f74206f70656e2060008201527f7965740000000000000000000000000000000000000000000000000000000000602082015250565b6000612334602383611834565b915061233f826122d8565b604082019050919050565b6000602082019050818103600083015261236381612327565b9050919050565b7f416c726561647920726567697374657265640000000000000000000000000000600082015250565b60006123a0601283611834565b91506123ab8261236a565b602082019050919050565b600060208201905081810360008301526123cf81612393565b9050919050565b7f4f776e61626c653a2063616c6c6572206973206e6f7420746865206f776e6572600082015250565b600061240c602083611834565b9150612417826123d6565b602082019050919050565b6000602082019050818103600083015261243b816123ff565b905091905056fea264697066735822122051d24fc00c1c326ff2cedad34cf5cea79e3c33fb15892a05e685124d958779c764736f6c63430008110033",
  "immutableReferences": {},
  "source": "// SPDX-License-Identifier: MIT\n\npragma solidity 0.8.17;\nimport \"../node_modules/@openzeppelin/contracts/access/Ownable.sol\";\n\n\ncontract Voting is Ownable {\n\n    uint public winningProposalID;\n    \n    struct Voter {\n        bool isRegistered;\n        bool hasVoted;\n        uint votedProposalId;\n    }\n\n    struct Proposal {\n        string description;\n        uint voteCount;\n    }\n\n    enum  WorkflowStatus {\n        RegisteringVoters,\n        ProposalsRegistrationStarted,\n        ProposalsRegistrationEnded,\n        VotingSessionStarted,\n        VotingSessionEnded,\n        VotesTallied\n    }\n\n    WorkflowStatus public workflowStatus;\n    Proposal[] proposalsArray;\n    mapping (address => Voter) voters;\n\n\n    event VoterRegistered(address voterAddress); \n    event WorkflowStatusChange(WorkflowStatus previousStatus, WorkflowStatus newStatus);\n    event ProposalRegistered(uint proposalId);\n    event Voted (address voter, uint proposalId);\n    \n    modifier onlyVoters() {\n        require(voters[msg.sender].isRegistered, \"You're not a voter\");\n        _;\n    }\n    \n    // on peut faire un modifier pour les tats\n\n    // ::::::::::::: GETTERS ::::::::::::: //\n\n    function getVoter(address _addr) external onlyVoters view returns (Voter memory) {\n        return voters[_addr];\n    }\n    \n    function getOneProposal(uint _id) external onlyVoters view returns (Proposal memory) {\n        return proposalsArray[_id];\n    }\n\n \n    // ::::::::::::: REGISTRATION ::::::::::::: // \n\n    function addVoter(address _addr) external onlyOwner {\n        require(workflowStatus == WorkflowStatus.RegisteringVoters, 'Voters registration is not open yet');\n        require(voters[_addr].isRegistered != true, 'Already registered');\n    \n        voters[_addr].isRegistered = true;\n        emit VoterRegistered(_addr);\n    }\n \n\n    // ::::::::::::: PROPOSAL ::::::::::::: // \n\n    function addProposal(string calldata _desc) external onlyVoters {\n        require(workflowStatus == WorkflowStatus.ProposalsRegistrationStarted, 'Proposals are not allowed yet');\n        require(keccak256(abi.encode(_desc)) != keccak256(abi.encode(\"\")), 'Vous ne pouvez pas ne rien proposer'); // facultatif\n        // voir que desc est different des autres\n\n        Proposal memory proposal;\n        proposal.description = _desc;\n        proposalsArray.push(proposal);\n        emit ProposalRegistered(proposalsArray.length-1);\n    }\n\n    // ::::::::::::: VOTE ::::::::::::: //\n\n    function setVote( uint _id) external onlyVoters {\n        require(workflowStatus == WorkflowStatus.VotingSessionStarted, 'Voting session havent started yet');\n        require(voters[msg.sender].hasVoted != true, 'You have already voted');\n        require(_id < proposalsArray.length, 'Proposal not found'); // pas oblig, et pas besoin du >0 car uint\n\n        voters[msg.sender].votedProposalId = _id;\n        voters[msg.sender].hasVoted = true;\n        proposalsArray[_id].voteCount++;\n\n        emit Voted(msg.sender, _id);\n    }\n\n    // ::::::::::::: STATE ::::::::::::: //\n\n\n    function startProposalsRegistering() external onlyOwner {\n        require(workflowStatus == WorkflowStatus.RegisteringVoters, 'Registering proposals cant be started now');\n        workflowStatus = WorkflowStatus.ProposalsRegistrationStarted;\n        \n        Proposal memory proposal;\n        proposal.description = \"GENESIS\";\n        proposalsArray.push(proposal);\n        \n        emit WorkflowStatusChange(WorkflowStatus.RegisteringVoters, WorkflowStatus.ProposalsRegistrationStarted);\n    }\n\n    function endProposalsRegistering() external onlyOwner {\n        require(workflowStatus == WorkflowStatus.ProposalsRegistrationStarted, 'Registering proposals havent started yet');\n        workflowStatus = WorkflowStatus.ProposalsRegistrationEnded;\n        emit WorkflowStatusChange(WorkflowStatus.ProposalsRegistrationStarted, WorkflowStatus.ProposalsRegistrationEnded);\n    }\n\n    function startVotingSession() external onlyOwner {\n        require(workflowStatus == WorkflowStatus.ProposalsRegistrationEnded, 'Registering proposals phase is not finished');\n        workflowStatus = WorkflowStatus.VotingSessionStarted;\n        emit WorkflowStatusChange(WorkflowStatus.ProposalsRegistrationEnded, WorkflowStatus.VotingSessionStarted);\n    }\n\n    function endVotingSession() external onlyOwner {\n        require(workflowStatus == WorkflowStatus.VotingSessionStarted, 'Voting session havent started yet');\n        workflowStatus = WorkflowStatus.VotingSessionEnded;\n        emit WorkflowStatusChange(WorkflowStatus.VotingSessionStarted, WorkflowStatus.VotingSessionEnded);\n    }\n\n\n   function tallyVotes() external onlyOwner {\n       require(workflowStatus == WorkflowStatus.VotingSessionEnded, \"Current status is not voting session ended\");\n       uint _winningProposalId;\n      for (uint256 p = 0; p < proposalsArray.length; p++) {\n           if (proposalsArray[p].voteCount > proposalsArray[_winningProposalId].voteCount) {\n               _winningProposalId = p;\n          }\n       }\n       winningProposalID = _winningProposalId;\n       \n       workflowStatus = WorkflowStatus.VotesTallied;\n       emit WorkflowStatusChange(WorkflowStatus.VotingSessionEnded, WorkflowStatus.VotesTallied);\n    }\n}",
  "sourcePath": "/home/leomrqd/Satoshi/TestVoting/contracts/Voting.sol",
  "compiler": {
    "name": "solc",
    "version": "0.8.17+commit.8df45f5f.Emscripten.clang"
  },
  "schemaVersion": "3.4.11",
  "updatedAt": "2023-02-19T13:26:48.041Z",
  "networkType": "ethereum",
  "devdoc": {
    "kind": "dev",
    "methods": {
      "owner()": {
        "details": "Returns the address of the current owner."
      },
      "renounceOwnership()": {
        "details": "Leaves the contract without owner. It will not be possible to call `onlyOwner` functions anymore. Can only be called by the current owner. NOTE: Renouncing ownership will leave the contract without an owner, thereby removing any functionality that is only available to the owner."
      },
      "transferOwnership(address)": {
        "details": "Transfers ownership of the contract to a new account (`newOwner`). Can only be called by the current owner."
      }
    },
    "version": 1
  },
  "userdoc": {
    "kind": "user",
    "methods": {},
    "version": 1
  }
}